{"contracts/cpia.sol":{"Tarea":{"abi":[{"inputs":[],"name":"getConsulta","outputs":[{"internalType":"string","name":"","type":"string"}],"stateMutability":"view","type":"function"},{"inputs":[{"internalType":"address","name":"","type":"address"}],"name":"names","outputs":[{"internalType":"string","name":"","type":"string"}],"stateMutability":"view","type":"function"},{"inputs":[{"internalType":"uint256","name":"_costo","type":"uint256"}],"name":"setCosto","outputs":[],"stateMutability":"nonpayable","type":"function"},{"inputs":[{"internalType":"string","name":"_diagnostico","type":"string"}],"name":"setDiagnostico","outputs":[],"stateMutability":"nonpayable","type":"function"},{"inputs":[{"internalType":"string","name":"_direccion","type":"string"}],"name":"setDireccion","outputs":[],"stateMutability":"nonpayable","type":"function"},{"inputs":[{"internalType":"uint256","name":"_edad","type":"uint256"}],"name":"setEdad","outputs":[],"stateMutability":"nonpayable","type":"function"},{"inputs":[{"internalType":"string","name":"_fecha","type":"string"}],"name":"setFecha","outputs":[],"stateMutability":"nonpayable","type":"function"},{"inputs":[{"internalType":"string","name":"_name","type":"string"}],"name":"setName","outputs":[],"stateMutability":"nonpayable","type":"function"}],"evm":{"bytecode":{"linkReferences":{},"object":"608060405234801561001057600080fd5b50610f39806100206000396000f3fe608060405234801561001057600080fd5b50600436106100885760003560e01c806378642da81161005b57806378642da814610113578063817ff5a61461012f578063ac2462f01461014b578063c47f00271461016757610088565b806311ce95091461008d57806318131600146100a95780635ab92f9a146100c75780635cf3d346146100e3575b600080fd5b6100a760048036038101906100a29190610767565b610183565b005b6100b16101cd565b6040516100be9190610824565b60405180910390f35b6100e160048036038101906100dc9190610767565b6104eb565b005b6100fd60048036038101906100f891906108a4565b610535565b60405161010a9190610824565b60405180910390f35b61012d60048036038101906101289190610a06565b6105d5565b005b61014960048036038101906101449190610a06565b610628565b005b61016560048036038101906101609190610a06565b61067b565b005b610181600480360381019061017c9190610a06565b6106ce565b005b80600160003373ffffffffffffffffffffffffffffffffffffffff1673ffffffffffffffffffffffffffffffffffffffff1681526020019081526020016000206003018190555050565b606060008060003373ffffffffffffffffffffffffffffffffffffffff1673ffffffffffffffffffffffffffffffffffffffff168152602001908152602001600020805461021a90610a7e565b80601f016020809104026020016040519081016040528092919081815260200182805461024690610a7e565b80156102935780601f1061026857610100808354040283529160200191610293565b820191906000526020600020905b81548152906001019060200180831161027657829003601f168201915b505050505090506000600160003373ffffffffffffffffffffffffffffffffffffffff1673ffffffffffffffffffffffffffffffffffffffff1681526020019081526020016000206040518060a00160405290816000820180546102f690610a7e565b80601f016020809104026020016040519081016040528092919081815260200182805461032290610a7e565b801561036f5780601f106103445761010080835404028352916020019161036f565b820191906000526020600020905b81548152906001019060200180831161035257829003601f168201915b5050505050815260200160018201805461038890610a7e565b80601f01602080910402602001604051908101604052809291908181526020018280546103b490610a7e565b80156104015780601f106103d657610100808354040283529160200191610401565b820191906000526020600020905b8154815290600101906020018083116103e457829003601f168201915b5050505050815260200160028201805461041a90610a7e565b80601f016020809104026020016040519081016040528092919081815260200182805461044690610a7e565b80156104935780601f1061046857610100808354040283529160200191610493565b820191906000526020600020905b81548152906001019060200180831161047657829003601f168201915b50505050508152602001600382015481526020016004820154815250509050818160000151826020015183604001516040516020016104d59493929190610c1b565b6040516020818303038152906040529250505090565b80600160003373ffffffffffffffffffffffffffffffffffffffff1673ffffffffffffffffffffffffffffffffffffffff1681526020019081526020016000206004018190555050565b6000602052806000526040600020600091509050805461055490610a7e565b80601f016020809104026020016040519081016040528092919081815260200182805461058090610a7e565b80156105cd5780601f106105a2576101008083540402835291602001916105cd565b820191906000526020600020905b8154815290600101906020018083116105b057829003601f168201915b505050505081565b80600160003373ffffffffffffffffffffffffffffffffffffffff1673ffffffffffffffffffffffffffffffffffffffff16815260200190815260200160002060020190816106249190610e31565b5050565b80600160003373ffffffffffffffffffffffffffffffffffffffff1673ffffffffffffffffffffffffffffffffffffffff16815260200190815260200160002060000190816106779190610e31565b5050565b80600160003373ffffffffffffffffffffffffffffffffffffffff1673ffffffffffffffffffffffffffffffffffffffff16815260200190815260200160002060010190816106ca9190610e31565b5050565b806000803373ffffffffffffffffffffffffffffffffffffffff1673ffffffffffffffffffffffffffffffffffffffff16815260200190815260200160002090816107199190610e31565b5050565b6000604051905090565b600080fd5b600080fd5b6000819050919050565b61074481610731565b811461074f57600080fd5b50565b6000813590506107618161073b565b92915050565b60006020828403121561077d5761077c610727565b5b600061078b84828501610752565b91505092915050565b600081519050919050565b600082825260208201905092915050565b60005b838110156107ce5780820151818401526020810190506107b3565b60008484015250505050565b6000601f19601f8301169050919050565b60006107f682610794565b610800818561079f565b93506108108185602086016107b0565b610819816107da565b840191505092915050565b6000602082019050818103600083015261083e81846107eb565b905092915050565b600073ffffffffffffffffffffffffffffffffffffffff82169050919050565b600061087182610846565b9050919050565b61088181610866565b811461088c57600080fd5b50565b60008135905061089e81610878565b92915050565b6000602082840312156108ba576108b9610727565b5b60006108c88482850161088f565b91505092915050565b600080fd5b600080fd5b7f4e487b7100000000000000000000000000000000000000000000000000000000600052604160045260246000fd5b610913826107da565b810181811067ffffffffffffffff82111715610932576109316108db565b5b80604052505050565b600061094561071d565b9050610951828261090a565b919050565b600067ffffffffffffffff821115610971576109706108db565b5b61097a826107da565b9050602081019050919050565b82818337600083830152505050565b60006109a96109a484610956565b61093b565b9050828152602081018484840111156109c5576109c46108d6565b5b6109d0848285610987565b509392505050565b600082601f8301126109ed576109ec6108d1565b5b81356109fd848260208601610996565b91505092915050565b600060208284031215610a1c57610a1b610727565b5b600082013567ffffffffffffffff811115610a3a57610a3961072c565b5b610a46848285016109d8565b91505092915050565b7f4e487b7100000000000000000000000000000000000000000000000000000000600052602260045260246000fd5b60006002820490506001821680610a9657607f821691505b602082108103610aa957610aa8610a4f565b5b50919050565b600081905092915050565b7f50616369656e74653a2000000000000000000000000000000000000000000000600082015250565b6000610af0600a83610aaf565b9150610afb82610aba565b600a82019050919050565b6000610b1182610794565b610b1b8185610aaf565b9350610b2b8185602086016107b0565b80840191505092915050565b7f204174656e6469646f20656c206469613a200000000000000000000000000000600082015250565b6000610b6d601283610aaf565b9150610b7882610b37565b601282019050919050565b7f20456e20656c20686f73706974616c3a20000000000000000000000000000000600082015250565b6000610bb9601183610aaf565b9150610bc482610b83565b601182019050919050565b7f20436f6e20756e20646961676e6f737469636f2064653a200000000000000000600082015250565b6000610c05601883610aaf565b9150610c1082610bcf565b601882019050919050565b6000610c2682610ae3565b9150610c328287610b06565b9150610c3d82610b60565b9150610c498286610b06565b9150610c5482610bac565b9150610c608285610b06565b9150610c6b82610bf8565b9150610c778284610b06565b915081905095945050505050565b60008190508160005260206000209050919050565b60006020601f8301049050919050565b600082821b905092915050565b600060088302610ce77fffffffffffffffffffffffffffffffffffffffffffffffffffffffffffffffff82610caa565b610cf18683610caa565b95508019841693508086168417925050509392505050565b6000819050919050565b6000610d2e610d29610d2484610731565b610d09565b610731565b9050919050565b6000819050919050565b610d4883610d13565b610d5c610d5482610d35565b848454610cb7565b825550505050565b600090565b610d71610d64565b610d7c818484610d3f565b505050565b5b81811015610da057610d95600082610d69565b600181019050610d82565b5050565b601f821115610de557610db681610c85565b610dbf84610c9a565b81016020851015610dce578190505b610de2610dda85610c9a565b830182610d81565b50505b505050565b600082821c905092915050565b6000610e0860001984600802610dea565b1980831691505092915050565b6000610e218383610df7565b9150826002028217905092915050565b610e3a82610794565b67ffffffffffffffff811115610e5357610e526108db565b5b610e5d8254610a7e565b610e68828285610da4565b600060209050601f831160018114610e9b5760008415610e89578287015190505b610e938582610e15565b865550610efb565b601f198416610ea986610c85565b60005b82811015610ed157848901518255600182019150602085019450602081019050610eac565b86831015610eee5784890151610eea601f891682610df7565b8355505b6001600288020188555050505b50505050505056fea2646970667358221220aaedab634dc6d0637862dccc6066b7ac5e8c89a26bdd64461049c2a474afea4f64736f6c63430008180033","opcodes":"PUSH1 0x80 PUSH1 0x40 MSTORE CALLVALUE DUP1 ISZERO PUSH2 0x10 JUMPI PUSH1 0x0 DUP1 REVERT JUMPDEST POP PUSH2 0xF39 DUP1 PUSH2 0x20 PUSH1 0x0 CODECOPY PUSH1 0x0 RETURN INVALID PUSH1 0x80 PUSH1 0x40 MSTORE CALLVALUE DUP1 ISZERO PUSH2 0x10 JUMPI PUSH1 0x0 DUP1 REVERT JUMPDEST POP PUSH1 0x4 CALLDATASIZE LT PUSH2 0x88 JUMPI PUSH1 0x0 CALLDATALOAD PUSH1 0xE0 SHR DUP1 PUSH4 0x78642DA8 GT PUSH2 0x5B JUMPI DUP1 PUSH4 0x78642DA8 EQ PUSH2 0x113 JUMPI DUP1 PUSH4 0x817FF5A6 EQ PUSH2 0x12F JUMPI DUP1 PUSH4 0xAC2462F0 EQ PUSH2 0x14B JUMPI DUP1 PUSH4 0xC47F0027 EQ PUSH2 0x167 JUMPI PUSH2 0x88 JUMP JUMPDEST DUP1 PUSH4 0x11CE9509 EQ PUSH2 0x8D JUMPI DUP1 PUSH4 0x18131600 EQ PUSH2 0xA9 JUMPI DUP1 PUSH4 0x5AB92F9A EQ PUSH2 0xC7 JUMPI DUP1 PUSH4 0x5CF3D346 EQ PUSH2 0xE3 JUMPI JUMPDEST PUSH1 0x0 DUP1 REVERT JUMPDEST PUSH2 0xA7 PUSH1 0x4 DUP1 CALLDATASIZE SUB DUP2 ADD SWAP1 PUSH2 0xA2 SWAP2 SWAP1 PUSH2 0x767 JUMP JUMPDEST PUSH2 0x183 JUMP JUMPDEST STOP JUMPDEST PUSH2 0xB1 PUSH2 0x1CD JUMP JUMPDEST PUSH1 0x40 MLOAD PUSH2 0xBE SWAP2 SWAP1 PUSH2 0x824 JUMP JUMPDEST PUSH1 0x40 MLOAD DUP1 SWAP2 SUB SWAP1 RETURN JUMPDEST PUSH2 0xE1 PUSH1 0x4 DUP1 CALLDATASIZE SUB DUP2 ADD SWAP1 PUSH2 0xDC SWAP2 SWAP1 PUSH2 0x767 JUMP JUMPDEST PUSH2 0x4EB JUMP JUMPDEST STOP JUMPDEST PUSH2 0xFD PUSH1 0x4 DUP1 CALLDATASIZE SUB DUP2 ADD SWAP1 PUSH2 0xF8 SWAP2 SWAP1 PUSH2 0x8A4 JUMP JUMPDEST PUSH2 0x535 JUMP JUMPDEST PUSH1 0x40 MLOAD PUSH2 0x10A SWAP2 SWAP1 PUSH2 0x824 JUMP JUMPDEST PUSH1 0x40 MLOAD DUP1 SWAP2 SUB SWAP1 RETURN JUMPDEST PUSH2 0x12D PUSH1 0x4 DUP1 CALLDATASIZE SUB DUP2 ADD SWAP1 PUSH2 0x128 SWAP2 SWAP1 PUSH2 0xA06 JUMP JUMPDEST PUSH2 0x5D5 JUMP JUMPDEST STOP JUMPDEST PUSH2 0x149 PUSH1 0x4 DUP1 CALLDATASIZE SUB DUP2 ADD SWAP1 PUSH2 0x144 SWAP2 SWAP1 PUSH2 0xA06 JUMP JUMPDEST PUSH2 0x628 JUMP JUMPDEST STOP JUMPDEST PUSH2 0x165 PUSH1 0x4 DUP1 CALLDATASIZE SUB DUP2 ADD SWAP1 PUSH2 0x160 SWAP2 SWAP1 PUSH2 0xA06 JUMP JUMPDEST PUSH2 0x67B JUMP JUMPDEST STOP JUMPDEST PUSH2 0x181 PUSH1 0x4 DUP1 CALLDATASIZE SUB DUP2 ADD SWAP1 PUSH2 0x17C SWAP2 SWAP1 PUSH2 0xA06 JUMP JUMPDEST PUSH2 0x6CE JUMP JUMPDEST STOP JUMPDEST DUP1 PUSH1 0x1 PUSH1 0x0 CALLER PUSH20 0xFFFFFFFFFFFFFFFFFFFFFFFFFFFFFFFFFFFFFFFF AND PUSH20 0xFFFFFFFFFFFFFFFFFFFFFFFFFFFFFFFFFFFFFFFF AND DUP2 MSTORE PUSH1 0x20 ADD SWAP1 DUP2 MSTORE PUSH1 0x20 ADD PUSH1 0x0 KECCAK256 PUSH1 0x3 ADD DUP2 SWAP1 SSTORE POP POP JUMP JUMPDEST PUSH1 0x60 PUSH1 0x0 DUP1 PUSH1 0x0 CALLER PUSH20 0xFFFFFFFFFFFFFFFFFFFFFFFFFFFFFFFFFFFFFFFF AND PUSH20 0xFFFFFFFFFFFFFFFFFFFFFFFFFFFFFFFFFFFFFFFF AND DUP2 MSTORE PUSH1 0x20 ADD SWAP1 DUP2 MSTORE PUSH1 0x20 ADD PUSH1 0x0 KECCAK256 DUP1 SLOAD PUSH2 0x21A SWAP1 PUSH2 0xA7E JUMP JUMPDEST DUP1 PUSH1 0x1F ADD PUSH1 0x20 DUP1 SWAP2 DIV MUL PUSH1 0x20 ADD PUSH1 0x40 MLOAD SWAP1 DUP2 ADD PUSH1 0x40 MSTORE DUP1 SWAP3 SWAP2 SWAP1 DUP2 DUP2 MSTORE PUSH1 0x20 ADD DUP3 DUP1 SLOAD PUSH2 0x246 SWAP1 PUSH2 0xA7E JUMP JUMPDEST DUP1 ISZERO PUSH2 0x293 JUMPI DUP1 PUSH1 0x1F LT PUSH2 0x268 JUMPI PUSH2 0x100 DUP1 DUP4 SLOAD DIV MUL DUP4 MSTORE SWAP2 PUSH1 0x20 ADD SWAP2 PUSH2 0x293 JUMP JUMPDEST DUP3 ADD SWAP2 SWAP1 PUSH1 0x0 MSTORE PUSH1 0x20 PUSH1 0x0 KECCAK256 SWAP1 JUMPDEST DUP2 SLOAD DUP2 MSTORE SWAP1 PUSH1 0x1 ADD SWAP1 PUSH1 0x20 ADD DUP1 DUP4 GT PUSH2 0x276 JUMPI DUP3 SWAP1 SUB PUSH1 0x1F AND DUP3 ADD SWAP2 JUMPDEST POP POP POP POP POP SWAP1 POP PUSH1 0x0 PUSH1 0x1 PUSH1 0x0 CALLER PUSH20 0xFFFFFFFFFFFFFFFFFFFFFFFFFFFFFFFFFFFFFFFF AND PUSH20 0xFFFFFFFFFFFFFFFFFFFFFFFFFFFFFFFFFFFFFFFF AND DUP2 MSTORE PUSH1 0x20 ADD SWAP1 DUP2 MSTORE PUSH1 0x20 ADD PUSH1 0x0 KECCAK256 PUSH1 0x40 MLOAD DUP1 PUSH1 0xA0 ADD PUSH1 0x40 MSTORE SWAP1 DUP2 PUSH1 0x0 DUP3 ADD DUP1 SLOAD PUSH2 0x2F6 SWAP1 PUSH2 0xA7E JUMP JUMPDEST DUP1 PUSH1 0x1F ADD PUSH1 0x20 DUP1 SWAP2 DIV MUL PUSH1 0x20 ADD PUSH1 0x40 MLOAD SWAP1 DUP2 ADD PUSH1 0x40 MSTORE DUP1 SWAP3 SWAP2 SWAP1 DUP2 DUP2 MSTORE PUSH1 0x20 ADD DUP3 DUP1 SLOAD PUSH2 0x322 SWAP1 PUSH2 0xA7E JUMP JUMPDEST DUP1 ISZERO PUSH2 0x36F JUMPI DUP1 PUSH1 0x1F LT PUSH2 0x344 JUMPI PUSH2 0x100 DUP1 DUP4 SLOAD DIV MUL DUP4 MSTORE SWAP2 PUSH1 0x20 ADD SWAP2 PUSH2 0x36F JUMP JUMPDEST DUP3 ADD SWAP2 SWAP1 PUSH1 0x0 MSTORE PUSH1 0x20 PUSH1 0x0 KECCAK256 SWAP1 JUMPDEST DUP2 SLOAD DUP2 MSTORE SWAP1 PUSH1 0x1 ADD SWAP1 PUSH1 0x20 ADD DUP1 DUP4 GT PUSH2 0x352 JUMPI DUP3 SWAP1 SUB PUSH1 0x1F AND DUP3 ADD SWAP2 JUMPDEST POP POP POP POP POP DUP2 MSTORE PUSH1 0x20 ADD PUSH1 0x1 DUP3 ADD DUP1 SLOAD PUSH2 0x388 SWAP1 PUSH2 0xA7E JUMP JUMPDEST DUP1 PUSH1 0x1F ADD PUSH1 0x20 DUP1 SWAP2 DIV MUL PUSH1 0x20 ADD PUSH1 0x40 MLOAD SWAP1 DUP2 ADD PUSH1 0x40 MSTORE DUP1 SWAP3 SWAP2 SWAP1 DUP2 DUP2 MSTORE PUSH1 0x20 ADD DUP3 DUP1 SLOAD PUSH2 0x3B4 SWAP1 PUSH2 0xA7E JUMP JUMPDEST DUP1 ISZERO PUSH2 0x401 JUMPI DUP1 PUSH1 0x1F LT PUSH2 0x3D6 JUMPI PUSH2 0x100 DUP1 DUP4 SLOAD DIV MUL DUP4 MSTORE SWAP2 PUSH1 0x20 ADD SWAP2 PUSH2 0x401 JUMP JUMPDEST DUP3 ADD SWAP2 SWAP1 PUSH1 0x0 MSTORE PUSH1 0x20 PUSH1 0x0 KECCAK256 SWAP1 JUMPDEST DUP2 SLOAD DUP2 MSTORE SWAP1 PUSH1 0x1 ADD SWAP1 PUSH1 0x20 ADD DUP1 DUP4 GT PUSH2 0x3E4 JUMPI DUP3 SWAP1 SUB PUSH1 0x1F AND DUP3 ADD SWAP2 JUMPDEST POP POP POP POP POP DUP2 MSTORE PUSH1 0x20 ADD PUSH1 0x2 DUP3 ADD DUP1 SLOAD PUSH2 0x41A SWAP1 PUSH2 0xA7E JUMP JUMPDEST DUP1 PUSH1 0x1F ADD PUSH1 0x20 DUP1 SWAP2 DIV MUL PUSH1 0x20 ADD PUSH1 0x40 MLOAD SWAP1 DUP2 ADD PUSH1 0x40 MSTORE DUP1 SWAP3 SWAP2 SWAP1 DUP2 DUP2 MSTORE PUSH1 0x20 ADD DUP3 DUP1 SLOAD PUSH2 0x446 SWAP1 PUSH2 0xA7E JUMP JUMPDEST DUP1 ISZERO PUSH2 0x493 JUMPI DUP1 PUSH1 0x1F LT PUSH2 0x468 JUMPI PUSH2 0x100 DUP1 DUP4 SLOAD DIV MUL DUP4 MSTORE SWAP2 PUSH1 0x20 ADD SWAP2 PUSH2 0x493 JUMP JUMPDEST DUP3 ADD SWAP2 SWAP1 PUSH1 0x0 MSTORE PUSH1 0x20 PUSH1 0x0 KECCAK256 SWAP1 JUMPDEST DUP2 SLOAD DUP2 MSTORE SWAP1 PUSH1 0x1 ADD SWAP1 PUSH1 0x20 ADD DUP1 DUP4 GT PUSH2 0x476 JUMPI DUP3 SWAP1 SUB PUSH1 0x1F AND DUP3 ADD SWAP2 JUMPDEST POP POP POP POP POP DUP2 MSTORE PUSH1 0x20 ADD PUSH1 0x3 DUP3 ADD SLOAD DUP2 MSTORE PUSH1 0x20 ADD PUSH1 0x4 DUP3 ADD SLOAD DUP2 MSTORE POP POP SWAP1 POP DUP2 DUP2 PUSH1 0x0 ADD MLOAD DUP3 PUSH1 0x20 ADD MLOAD DUP4 PUSH1 0x40 ADD MLOAD PUSH1 0x40 MLOAD PUSH1 0x20 ADD PUSH2 0x4D5 SWAP5 SWAP4 SWAP3 SWAP2 SWAP1 PUSH2 0xC1B JUMP JUMPDEST PUSH1 0x40 MLOAD PUSH1 0x20 DUP2 DUP4 SUB SUB DUP2 MSTORE SWAP1 PUSH1 0x40 MSTORE SWAP3 POP POP POP SWAP1 JUMP JUMPDEST DUP1 PUSH1 0x1 PUSH1 0x0 CALLER PUSH20 0xFFFFFFFFFFFFFFFFFFFFFFFFFFFFFFFFFFFFFFFF AND PUSH20 0xFFFFFFFFFFFFFFFFFFFFFFFFFFFFFFFFFFFFFFFF AND DUP2 MSTORE PUSH1 0x20 ADD SWAP1 DUP2 MSTORE PUSH1 0x20 ADD PUSH1 0x0 KECCAK256 PUSH1 0x4 ADD DUP2 SWAP1 SSTORE POP POP JUMP JUMPDEST PUSH1 0x0 PUSH1 0x20 MSTORE DUP1 PUSH1 0x0 MSTORE PUSH1 0x40 PUSH1 0x0 KECCAK256 PUSH1 0x0 SWAP2 POP SWAP1 POP DUP1 SLOAD PUSH2 0x554 SWAP1 PUSH2 0xA7E JUMP JUMPDEST DUP1 PUSH1 0x1F ADD PUSH1 0x20 DUP1 SWAP2 DIV MUL PUSH1 0x20 ADD PUSH1 0x40 MLOAD SWAP1 DUP2 ADD PUSH1 0x40 MSTORE DUP1 SWAP3 SWAP2 SWAP1 DUP2 DUP2 MSTORE PUSH1 0x20 ADD DUP3 DUP1 SLOAD PUSH2 0x580 SWAP1 PUSH2 0xA7E JUMP JUMPDEST DUP1 ISZERO PUSH2 0x5CD JUMPI DUP1 PUSH1 0x1F LT PUSH2 0x5A2 JUMPI PUSH2 0x100 DUP1 DUP4 SLOAD DIV MUL DUP4 MSTORE SWAP2 PUSH1 0x20 ADD SWAP2 PUSH2 0x5CD JUMP JUMPDEST DUP3 ADD SWAP2 SWAP1 PUSH1 0x0 MSTORE PUSH1 0x20 PUSH1 0x0 KECCAK256 SWAP1 JUMPDEST DUP2 SLOAD DUP2 MSTORE SWAP1 PUSH1 0x1 ADD SWAP1 PUSH1 0x20 ADD DUP1 DUP4 GT PUSH2 0x5B0 JUMPI DUP3 SWAP1 SUB PUSH1 0x1F AND DUP3 ADD SWAP2 JUMPDEST POP POP POP POP POP DUP2 JUMP JUMPDEST DUP1 PUSH1 0x1 PUSH1 0x0 CALLER PUSH20 0xFFFFFFFFFFFFFFFFFFFFFFFFFFFFFFFFFFFFFFFF AND PUSH20 0xFFFFFFFFFFFFFFFFFFFFFFFFFFFFFFFFFFFFFFFF AND DUP2 MSTORE PUSH1 0x20 ADD SWAP1 DUP2 MSTORE PUSH1 0x20 ADD PUSH1 0x0 KECCAK256 PUSH1 0x2 ADD SWAP1 DUP2 PUSH2 0x624 SWAP2 SWAP1 PUSH2 0xE31 JUMP JUMPDEST POP POP JUMP JUMPDEST DUP1 PUSH1 0x1 PUSH1 0x0 CALLER PUSH20 0xFFFFFFFFFFFFFFFFFFFFFFFFFFFFFFFFFFFFFFFF AND PUSH20 0xFFFFFFFFFFFFFFFFFFFFFFFFFFFFFFFFFFFFFFFF AND DUP2 MSTORE PUSH1 0x20 ADD SWAP1 DUP2 MSTORE PUSH1 0x20 ADD PUSH1 0x0 KECCAK256 PUSH1 0x0 ADD SWAP1 DUP2 PUSH2 0x677 SWAP2 SWAP1 PUSH2 0xE31 JUMP JUMPDEST POP POP JUMP JUMPDEST DUP1 PUSH1 0x1 PUSH1 0x0 CALLER PUSH20 0xFFFFFFFFFFFFFFFFFFFFFFFFFFFFFFFFFFFFFFFF AND PUSH20 0xFFFFFFFFFFFFFFFFFFFFFFFFFFFFFFFFFFFFFFFF AND DUP2 MSTORE PUSH1 0x20 ADD SWAP1 DUP2 MSTORE PUSH1 0x20 ADD PUSH1 0x0 KECCAK256 PUSH1 0x1 ADD SWAP1 DUP2 PUSH2 0x6CA SWAP2 SWAP1 PUSH2 0xE31 JUMP JUMPDEST POP POP JUMP JUMPDEST DUP1 PUSH1 0x0 DUP1 CALLER PUSH20 0xFFFFFFFFFFFFFFFFFFFFFFFFFFFFFFFFFFFFFFFF AND PUSH20 0xFFFFFFFFFFFFFFFFFFFFFFFFFFFFFFFFFFFFFFFF AND DUP2 MSTORE PUSH1 0x20 ADD SWAP1 DUP2 MSTORE PUSH1 0x20 ADD PUSH1 0x0 KECCAK256 SWAP1 DUP2 PUSH2 0x719 SWAP2 SWAP1 PUSH2 0xE31 JUMP JUMPDEST POP POP JUMP JUMPDEST PUSH1 0x0 PUSH1 0x40 MLOAD SWAP1 POP SWAP1 JUMP JUMPDEST PUSH1 0x0 DUP1 REVERT JUMPDEST PUSH1 0x0 DUP1 REVERT JUMPDEST PUSH1 0x0 DUP2 SWAP1 POP SWAP2 SWAP1 POP JUMP JUMPDEST PUSH2 0x744 DUP2 PUSH2 0x731 JUMP JUMPDEST DUP2 EQ PUSH2 0x74F JUMPI PUSH1 0x0 DUP1 REVERT JUMPDEST POP JUMP JUMPDEST PUSH1 0x0 DUP2 CALLDATALOAD SWAP1 POP PUSH2 0x761 DUP2 PUSH2 0x73B JUMP JUMPDEST SWAP3 SWAP2 POP POP JUMP JUMPDEST PUSH1 0x0 PUSH1 0x20 DUP3 DUP5 SUB SLT ISZERO PUSH2 0x77D JUMPI PUSH2 0x77C PUSH2 0x727 JUMP JUMPDEST JUMPDEST PUSH1 0x0 PUSH2 0x78B DUP5 DUP3 DUP6 ADD PUSH2 0x752 JUMP JUMPDEST SWAP2 POP POP SWAP3 SWAP2 POP POP JUMP JUMPDEST PUSH1 0x0 DUP2 MLOAD SWAP1 POP SWAP2 SWAP1 POP JUMP JUMPDEST PUSH1 0x0 DUP3 DUP3 MSTORE PUSH1 0x20 DUP3 ADD SWAP1 POP SWAP3 SWAP2 POP POP JUMP JUMPDEST PUSH1 0x0 JUMPDEST DUP4 DUP2 LT ISZERO PUSH2 0x7CE JUMPI DUP1 DUP3 ADD MLOAD DUP2 DUP5 ADD MSTORE PUSH1 0x20 DUP2 ADD SWAP1 POP PUSH2 0x7B3 JUMP JUMPDEST PUSH1 0x0 DUP5 DUP5 ADD MSTORE POP POP POP POP JUMP JUMPDEST PUSH1 0x0 PUSH1 0x1F NOT PUSH1 0x1F DUP4 ADD AND SWAP1 POP SWAP2 SWAP1 POP JUMP JUMPDEST PUSH1 0x0 PUSH2 0x7F6 DUP3 PUSH2 0x794 JUMP JUMPDEST PUSH2 0x800 DUP2 DUP6 PUSH2 0x79F JUMP JUMPDEST SWAP4 POP PUSH2 0x810 DUP2 DUP6 PUSH1 0x20 DUP7 ADD PUSH2 0x7B0 JUMP JUMPDEST PUSH2 0x819 DUP2 PUSH2 0x7DA JUMP JUMPDEST DUP5 ADD SWAP2 POP POP SWAP3 SWAP2 POP POP JUMP JUMPDEST PUSH1 0x0 PUSH1 0x20 DUP3 ADD SWAP1 POP DUP2 DUP2 SUB PUSH1 0x0 DUP4 ADD MSTORE PUSH2 0x83E DUP2 DUP5 PUSH2 0x7EB JUMP JUMPDEST SWAP1 POP SWAP3 SWAP2 POP POP JUMP JUMPDEST PUSH1 0x0 PUSH20 0xFFFFFFFFFFFFFFFFFFFFFFFFFFFFFFFFFFFFFFFF DUP3 AND SWAP1 POP SWAP2 SWAP1 POP JUMP JUMPDEST PUSH1 0x0 PUSH2 0x871 DUP3 PUSH2 0x846 JUMP JUMPDEST SWAP1 POP SWAP2 SWAP1 POP JUMP JUMPDEST PUSH2 0x881 DUP2 PUSH2 0x866 JUMP JUMPDEST DUP2 EQ PUSH2 0x88C JUMPI PUSH1 0x0 DUP1 REVERT JUMPDEST POP JUMP JUMPDEST PUSH1 0x0 DUP2 CALLDATALOAD SWAP1 POP PUSH2 0x89E DUP2 PUSH2 0x878 JUMP JUMPDEST SWAP3 SWAP2 POP POP JUMP JUMPDEST PUSH1 0x0 PUSH1 0x20 DUP3 DUP5 SUB SLT ISZERO PUSH2 0x8BA JUMPI PUSH2 0x8B9 PUSH2 0x727 JUMP JUMPDEST JUMPDEST PUSH1 0x0 PUSH2 0x8C8 DUP5 DUP3 DUP6 ADD PUSH2 0x88F JUMP JUMPDEST SWAP2 POP POP SWAP3 SWAP2 POP POP JUMP JUMPDEST PUSH1 0x0 DUP1 REVERT JUMPDEST PUSH1 0x0 DUP1 REVERT JUMPDEST PUSH32 0x4E487B7100000000000000000000000000000000000000000000000000000000 PUSH1 0x0 MSTORE PUSH1 0x41 PUSH1 0x4 MSTORE PUSH1 0x24 PUSH1 0x0 REVERT JUMPDEST PUSH2 0x913 DUP3 PUSH2 0x7DA JUMP JUMPDEST DUP2 ADD DUP2 DUP2 LT PUSH8 0xFFFFFFFFFFFFFFFF DUP3 GT OR ISZERO PUSH2 0x932 JUMPI PUSH2 0x931 PUSH2 0x8DB JUMP JUMPDEST JUMPDEST DUP1 PUSH1 0x40 MSTORE POP POP POP JUMP JUMPDEST PUSH1 0x0 PUSH2 0x945 PUSH2 0x71D JUMP JUMPDEST SWAP1 POP PUSH2 0x951 DUP3 DUP3 PUSH2 0x90A JUMP JUMPDEST SWAP2 SWAP1 POP JUMP JUMPDEST PUSH1 0x0 PUSH8 0xFFFFFFFFFFFFFFFF DUP3 GT ISZERO PUSH2 0x971 JUMPI PUSH2 0x970 PUSH2 0x8DB JUMP JUMPDEST JUMPDEST PUSH2 0x97A DUP3 PUSH2 0x7DA JUMP JUMPDEST SWAP1 POP PUSH1 0x20 DUP2 ADD SWAP1 POP SWAP2 SWAP1 POP JUMP JUMPDEST DUP3 DUP2 DUP4 CALLDATACOPY PUSH1 0x0 DUP4 DUP4 ADD MSTORE POP POP POP JUMP JUMPDEST PUSH1 0x0 PUSH2 0x9A9 PUSH2 0x9A4 DUP5 PUSH2 0x956 JUMP JUMPDEST PUSH2 0x93B JUMP JUMPDEST SWAP1 POP DUP3 DUP2 MSTORE PUSH1 0x20 DUP2 ADD DUP5 DUP5 DUP5 ADD GT ISZERO PUSH2 0x9C5 JUMPI PUSH2 0x9C4 PUSH2 0x8D6 JUMP JUMPDEST JUMPDEST PUSH2 0x9D0 DUP5 DUP3 DUP6 PUSH2 0x987 JUMP JUMPDEST POP SWAP4 SWAP3 POP POP POP JUMP JUMPDEST PUSH1 0x0 DUP3 PUSH1 0x1F DUP4 ADD SLT PUSH2 0x9ED JUMPI PUSH2 0x9EC PUSH2 0x8D1 JUMP JUMPDEST JUMPDEST DUP2 CALLDATALOAD PUSH2 0x9FD DUP5 DUP3 PUSH1 0x20 DUP7 ADD PUSH2 0x996 JUMP JUMPDEST SWAP2 POP POP SWAP3 SWAP2 POP POP JUMP JUMPDEST PUSH1 0x0 PUSH1 0x20 DUP3 DUP5 SUB SLT ISZERO PUSH2 0xA1C JUMPI PUSH2 0xA1B PUSH2 0x727 JUMP JUMPDEST JUMPDEST PUSH1 0x0 DUP3 ADD CALLDATALOAD PUSH8 0xFFFFFFFFFFFFFFFF DUP2 GT ISZERO PUSH2 0xA3A JUMPI PUSH2 0xA39 PUSH2 0x72C JUMP JUMPDEST JUMPDEST PUSH2 0xA46 DUP5 DUP3 DUP6 ADD PUSH2 0x9D8 JUMP JUMPDEST SWAP2 POP POP SWAP3 SWAP2 POP POP JUMP JUMPDEST PUSH32 0x4E487B7100000000000000000000000000000000000000000000000000000000 PUSH1 0x0 MSTORE PUSH1 0x22 PUSH1 0x4 MSTORE PUSH1 0x24 PUSH1 0x0 REVERT JUMPDEST PUSH1 0x0 PUSH1 0x2 DUP3 DIV SWAP1 POP PUSH1 0x1 DUP3 AND DUP1 PUSH2 0xA96 JUMPI PUSH1 0x7F DUP3 AND SWAP2 POP JUMPDEST PUSH1 0x20 DUP3 LT DUP2 SUB PUSH2 0xAA9 JUMPI PUSH2 0xAA8 PUSH2 0xA4F JUMP JUMPDEST JUMPDEST POP SWAP2 SWAP1 POP JUMP JUMPDEST PUSH1 0x0 DUP2 SWAP1 POP SWAP3 SWAP2 POP POP JUMP JUMPDEST PUSH32 0x50616369656E74653A2000000000000000000000000000000000000000000000 PUSH1 0x0 DUP3 ADD MSTORE POP JUMP JUMPDEST PUSH1 0x0 PUSH2 0xAF0 PUSH1 0xA DUP4 PUSH2 0xAAF JUMP JUMPDEST SWAP2 POP PUSH2 0xAFB DUP3 PUSH2 0xABA JUMP JUMPDEST PUSH1 0xA DUP3 ADD SWAP1 POP SWAP2 SWAP1 POP JUMP JUMPDEST PUSH1 0x0 PUSH2 0xB11 DUP3 PUSH2 0x794 JUMP JUMPDEST PUSH2 0xB1B DUP2 DUP6 PUSH2 0xAAF JUMP JUMPDEST SWAP4 POP PUSH2 0xB2B DUP2 DUP6 PUSH1 0x20 DUP7 ADD PUSH2 0x7B0 JUMP JUMPDEST DUP1 DUP5 ADD SWAP2 POP POP SWAP3 SWAP2 POP POP JUMP JUMPDEST PUSH32 0x204174656E6469646F20656C206469613A200000000000000000000000000000 PUSH1 0x0 DUP3 ADD MSTORE POP JUMP JUMPDEST PUSH1 0x0 PUSH2 0xB6D PUSH1 0x12 DUP4 PUSH2 0xAAF JUMP JUMPDEST SWAP2 POP PUSH2 0xB78 DUP3 PUSH2 0xB37 JUMP JUMPDEST PUSH1 0x12 DUP3 ADD SWAP1 POP SWAP2 SWAP1 POP JUMP JUMPDEST PUSH32 0x20456E20656C20686F73706974616C3A20000000000000000000000000000000 PUSH1 0x0 DUP3 ADD MSTORE POP JUMP JUMPDEST PUSH1 0x0 PUSH2 0xBB9 PUSH1 0x11 DUP4 PUSH2 0xAAF JUMP JUMPDEST SWAP2 POP PUSH2 0xBC4 DUP3 PUSH2 0xB83 JUMP JUMPDEST PUSH1 0x11 DUP3 ADD SWAP1 POP SWAP2 SWAP1 POP JUMP JUMPDEST PUSH32 0x20436F6E20756E20646961676E6F737469636F2064653A200000000000000000 PUSH1 0x0 DUP3 ADD MSTORE POP JUMP JUMPDEST PUSH1 0x0 PUSH2 0xC05 PUSH1 0x18 DUP4 PUSH2 0xAAF JUMP JUMPDEST SWAP2 POP PUSH2 0xC10 DUP3 PUSH2 0xBCF JUMP JUMPDEST PUSH1 0x18 DUP3 ADD SWAP1 POP SWAP2 SWAP1 POP JUMP JUMPDEST PUSH1 0x0 PUSH2 0xC26 DUP3 PUSH2 0xAE3 JUMP JUMPDEST SWAP2 POP PUSH2 0xC32 DUP3 DUP8 PUSH2 0xB06 JUMP JUMPDEST SWAP2 POP PUSH2 0xC3D DUP3 PUSH2 0xB60 JUMP JUMPDEST SWAP2 POP PUSH2 0xC49 DUP3 DUP7 PUSH2 0xB06 JUMP JUMPDEST SWAP2 POP PUSH2 0xC54 DUP3 PUSH2 0xBAC JUMP JUMPDEST SWAP2 POP PUSH2 0xC60 DUP3 DUP6 PUSH2 0xB06 JUMP JUMPDEST SWAP2 POP PUSH2 0xC6B DUP3 PUSH2 0xBF8 JUMP JUMPDEST SWAP2 POP PUSH2 0xC77 DUP3 DUP5 PUSH2 0xB06 JUMP JUMPDEST SWAP2 POP DUP2 SWAP1 POP SWAP6 SWAP5 POP POP POP POP POP JUMP JUMPDEST PUSH1 0x0 DUP2 SWAP1 POP DUP2 PUSH1 0x0 MSTORE PUSH1 0x20 PUSH1 0x0 KECCAK256 SWAP1 POP SWAP2 SWAP1 POP JUMP JUMPDEST PUSH1 0x0 PUSH1 0x20 PUSH1 0x1F DUP4 ADD DIV SWAP1 POP SWAP2 SWAP1 POP JUMP JUMPDEST PUSH1 0x0 DUP3 DUP3 SHL SWAP1 POP SWAP3 SWAP2 POP POP JUMP JUMPDEST PUSH1 0x0 PUSH1 0x8 DUP4 MUL PUSH2 0xCE7 PUSH32 0xFFFFFFFFFFFFFFFFFFFFFFFFFFFFFFFFFFFFFFFFFFFFFFFFFFFFFFFFFFFFFFFF DUP3 PUSH2 0xCAA JUMP JUMPDEST PUSH2 0xCF1 DUP7 DUP4 PUSH2 0xCAA JUMP JUMPDEST SWAP6 POP DUP1 NOT DUP5 AND SWAP4 POP DUP1 DUP7 AND DUP5 OR SWAP3 POP POP POP SWAP4 SWAP3 POP POP POP JUMP JUMPDEST PUSH1 0x0 DUP2 SWAP1 POP SWAP2 SWAP1 POP JUMP JUMPDEST PUSH1 0x0 PUSH2 0xD2E PUSH2 0xD29 PUSH2 0xD24 DUP5 PUSH2 0x731 JUMP JUMPDEST PUSH2 0xD09 JUMP JUMPDEST PUSH2 0x731 JUMP JUMPDEST SWAP1 POP SWAP2 SWAP1 POP JUMP JUMPDEST PUSH1 0x0 DUP2 SWAP1 POP SWAP2 SWAP1 POP JUMP JUMPDEST PUSH2 0xD48 DUP4 PUSH2 0xD13 JUMP JUMPDEST PUSH2 0xD5C PUSH2 0xD54 DUP3 PUSH2 0xD35 JUMP JUMPDEST DUP5 DUP5 SLOAD PUSH2 0xCB7 JUMP JUMPDEST DUP3 SSTORE POP POP POP POP JUMP JUMPDEST PUSH1 0x0 SWAP1 JUMP JUMPDEST PUSH2 0xD71 PUSH2 0xD64 JUMP JUMPDEST PUSH2 0xD7C DUP2 DUP5 DUP5 PUSH2 0xD3F JUMP JUMPDEST POP POP POP JUMP JUMPDEST JUMPDEST DUP2 DUP2 LT ISZERO PUSH2 0xDA0 JUMPI PUSH2 0xD95 PUSH1 0x0 DUP3 PUSH2 0xD69 JUMP JUMPDEST PUSH1 0x1 DUP2 ADD SWAP1 POP PUSH2 0xD82 JUMP JUMPDEST POP POP JUMP JUMPDEST PUSH1 0x1F DUP3 GT ISZERO PUSH2 0xDE5 JUMPI PUSH2 0xDB6 DUP2 PUSH2 0xC85 JUMP JUMPDEST PUSH2 0xDBF DUP5 PUSH2 0xC9A JUMP JUMPDEST DUP2 ADD PUSH1 0x20 DUP6 LT ISZERO PUSH2 0xDCE JUMPI DUP2 SWAP1 POP JUMPDEST PUSH2 0xDE2 PUSH2 0xDDA DUP6 PUSH2 0xC9A JUMP JUMPDEST DUP4 ADD DUP3 PUSH2 0xD81 JUMP JUMPDEST POP POP JUMPDEST POP POP POP JUMP JUMPDEST PUSH1 0x0 DUP3 DUP3 SHR SWAP1 POP SWAP3 SWAP2 POP POP JUMP JUMPDEST PUSH1 0x0 PUSH2 0xE08 PUSH1 0x0 NOT DUP5 PUSH1 0x8 MUL PUSH2 0xDEA JUMP JUMPDEST NOT DUP1 DUP4 AND SWAP2 POP POP SWAP3 SWAP2 POP POP JUMP JUMPDEST PUSH1 0x0 PUSH2 0xE21 DUP4 DUP4 PUSH2 0xDF7 JUMP JUMPDEST SWAP2 POP DUP3 PUSH1 0x2 MUL DUP3 OR SWAP1 POP SWAP3 SWAP2 POP POP JUMP JUMPDEST PUSH2 0xE3A DUP3 PUSH2 0x794 JUMP JUMPDEST PUSH8 0xFFFFFFFFFFFFFFFF DUP2 GT ISZERO PUSH2 0xE53 JUMPI PUSH2 0xE52 PUSH2 0x8DB JUMP JUMPDEST JUMPDEST PUSH2 0xE5D DUP3 SLOAD PUSH2 0xA7E JUMP JUMPDEST PUSH2 0xE68 DUP3 DUP3 DUP6 PUSH2 0xDA4 JUMP JUMPDEST PUSH1 0x0 PUSH1 0x20 SWAP1 POP PUSH1 0x1F DUP4 GT PUSH1 0x1 DUP2 EQ PUSH2 0xE9B JUMPI PUSH1 0x0 DUP5 ISZERO PUSH2 0xE89 JUMPI DUP3 DUP8 ADD MLOAD SWAP1 POP JUMPDEST PUSH2 0xE93 DUP6 DUP3 PUSH2 0xE15 JUMP JUMPDEST DUP7 SSTORE POP PUSH2 0xEFB JUMP JUMPDEST PUSH1 0x1F NOT DUP5 AND PUSH2 0xEA9 DUP7 PUSH2 0xC85 JUMP JUMPDEST PUSH1 0x0 JUMPDEST DUP3 DUP2 LT ISZERO PUSH2 0xED1 JUMPI DUP5 DUP10 ADD MLOAD DUP3 SSTORE PUSH1 0x1 DUP3 ADD SWAP2 POP PUSH1 0x20 DUP6 ADD SWAP5 POP PUSH1 0x20 DUP2 ADD SWAP1 POP PUSH2 0xEAC JUMP JUMPDEST DUP7 DUP4 LT ISZERO PUSH2 0xEEE JUMPI DUP5 DUP10 ADD MLOAD PUSH2 0xEEA PUSH1 0x1F DUP10 AND DUP3 PUSH2 0xDF7 JUMP JUMPDEST DUP4 SSTORE POP JUMPDEST PUSH1 0x1 PUSH1 0x2 DUP9 MUL ADD DUP9 SSTORE POP POP POP JUMPDEST POP POP POP POP POP POP JUMP INVALID LOG2 PUSH5 0x6970667358 0x22 SLT KECCAK256 0xAA 0xED 0xAB PUSH4 0x4DC6D063 PUSH25 0x62DCCC6066B7AC5E8C89A26BDD64461049C2A474AFEA4F6473 PUSH16 0x6C634300081800330000000000000000 "},"methodIdentifiers":{"getConsulta()":"18131600","names(address)":"5cf3d346","setCosto(uint256)":"5ab92f9a","setDiagnostico(string)":"78642da8","setDireccion(string)":"ac2462f0","setEdad(uint256)":"11ce9509","setFecha(string)":"817ff5a6","setName(string)":"c47f0027"}}}}}