{
  "_format": "hh-sol-artifact-1",
  "contractName": "Tarea",
  "sourceName": "contracts/cpia.sol",
  "abi": [
    {
      "inputs": [],
      "name": "getConsulta",
      "outputs": [
        {
          "internalType": "string",
          "name": "",
          "type": "string"
        }
      ],
      "stateMutability": "view",
      "type": "function"
    },
    {
      "inputs": [
        {
          "internalType": "address",
          "name": "",
          "type": "address"
        }
      ],
      "name": "names",
      "outputs": [
        {
          "internalType": "string",
          "name": "",
          "type": "string"
        }
      ],
      "stateMutability": "view",
      "type": "function"
    },
    {
      "inputs": [
        {
          "internalType": "uint256",
          "name": "_costo",
          "type": "uint256"
        }
      ],
      "name": "setCosto",
      "outputs": [],
      "stateMutability": "nonpayable",
      "type": "function"
    },
    {
      "inputs": [
        {
          "internalType": "string",
          "name": "_diagnostico",
          "type": "string"
        }
      ],
      "name": "setDiagnostico",
      "outputs": [],
      "stateMutability": "nonpayable",
      "type": "function"
    },
    {
      "inputs": [
        {
          "internalType": "string",
          "name": "_direccion",
          "type": "string"
        }
      ],
      "name": "setDireccion",
      "outputs": [],
      "stateMutability": "nonpayable",
      "type": "function"
    },
    {
      "inputs": [
        {
          "internalType": "uint256",
          "name": "_edad",
          "type": "uint256"
        }
      ],
      "name": "setEdad",
      "outputs": [],
      "stateMutability": "nonpayable",
      "type": "function"
    },
    {
      "inputs": [
        {
          "internalType": "string",
          "name": "_fecha",
          "type": "string"
        }
      ],
      "name": "setFecha",
      "outputs": [],
      "stateMutability": "nonpayable",
      "type": "function"
    },
    {
      "inputs": [
        {
          "internalType": "string",
          "name": "_name",
          "type": "string"
        }
      ],
      "name": "setName",
      "outputs": [],
      "stateMutability": "nonpayable",
      "type": "function"
    }
  ],
  "bytecode": "0x608060405234801561001057600080fd5b50610f39806100206000396000f3fe608060405234801561001057600080fd5b50600436106100885760003560e01c806378642da81161005b57806378642da814610113578063817ff5a61461012f578063ac2462f01461014b578063c47f00271461016757610088565b806311ce95091461008d57806318131600146100a95780635ab92f9a146100c75780635cf3d346146100e3575b600080fd5b6100a760048036038101906100a29190610767565b610183565b005b6100b16101cd565b6040516100be9190610824565b60405180910390f35b6100e160048036038101906100dc9190610767565b6104eb565b005b6100fd60048036038101906100f891906108a4565b610535565b60405161010a9190610824565b60405180910390f35b61012d60048036038101906101289190610a06565b6105d5565b005b61014960048036038101906101449190610a06565b610628565b005b61016560048036038101906101609190610a06565b61067b565b005b610181600480360381019061017c9190610a06565b6106ce565b005b80600160003373ffffffffffffffffffffffffffffffffffffffff1673ffffffffffffffffffffffffffffffffffffffff1681526020019081526020016000206003018190555050565b606060008060003373ffffffffffffffffffffffffffffffffffffffff1673ffffffffffffffffffffffffffffffffffffffff168152602001908152602001600020805461021a90610a7e565b80601f016020809104026020016040519081016040528092919081815260200182805461024690610a7e565b80156102935780601f1061026857610100808354040283529160200191610293565b820191906000526020600020905b81548152906001019060200180831161027657829003601f168201915b505050505090506000600160003373ffffffffffffffffffffffffffffffffffffffff1673ffffffffffffffffffffffffffffffffffffffff1681526020019081526020016000206040518060a00160405290816000820180546102f690610a7e565b80601f016020809104026020016040519081016040528092919081815260200182805461032290610a7e565b801561036f5780601f106103445761010080835404028352916020019161036f565b820191906000526020600020905b81548152906001019060200180831161035257829003601f168201915b5050505050815260200160018201805461038890610a7e565b80601f01602080910402602001604051908101604052809291908181526020018280546103b490610a7e565b80156104015780601f106103d657610100808354040283529160200191610401565b820191906000526020600020905b8154815290600101906020018083116103e457829003601f168201915b5050505050815260200160028201805461041a90610a7e565b80601f016020809104026020016040519081016040528092919081815260200182805461044690610a7e565b80156104935780601f1061046857610100808354040283529160200191610493565b820191906000526020600020905b81548152906001019060200180831161047657829003601f168201915b50505050508152602001600382015481526020016004820154815250509050818160000151826020015183604001516040516020016104d59493929190610c1b565b6040516020818303038152906040529250505090565b80600160003373ffffffffffffffffffffffffffffffffffffffff1673ffffffffffffffffffffffffffffffffffffffff1681526020019081526020016000206004018190555050565b6000602052806000526040600020600091509050805461055490610a7e565b80601f016020809104026020016040519081016040528092919081815260200182805461058090610a7e565b80156105cd5780601f106105a2576101008083540402835291602001916105cd565b820191906000526020600020905b8154815290600101906020018083116105b057829003601f168201915b505050505081565b80600160003373ffffffffffffffffffffffffffffffffffffffff1673ffffffffffffffffffffffffffffffffffffffff16815260200190815260200160002060020190816106249190610e31565b5050565b80600160003373ffffffffffffffffffffffffffffffffffffffff1673ffffffffffffffffffffffffffffffffffffffff16815260200190815260200160002060000190816106779190610e31565b5050565b80600160003373ffffffffffffffffffffffffffffffffffffffff1673ffffffffffffffffffffffffffffffffffffffff16815260200190815260200160002060010190816106ca9190610e31565b5050565b806000803373ffffffffffffffffffffffffffffffffffffffff1673ffffffffffffffffffffffffffffffffffffffff16815260200190815260200160002090816107199190610e31565b5050565b6000604051905090565b600080fd5b600080fd5b6000819050919050565b61074481610731565b811461074f57600080fd5b50565b6000813590506107618161073b565b92915050565b60006020828403121561077d5761077c610727565b5b600061078b84828501610752565b91505092915050565b600081519050919050565b600082825260208201905092915050565b60005b838110156107ce5780820151818401526020810190506107b3565b60008484015250505050565b6000601f19601f8301169050919050565b60006107f682610794565b610800818561079f565b93506108108185602086016107b0565b610819816107da565b840191505092915050565b6000602082019050818103600083015261083e81846107eb565b905092915050565b600073ffffffffffffffffffffffffffffffffffffffff82169050919050565b600061087182610846565b9050919050565b61088181610866565b811461088c57600080fd5b50565b60008135905061089e81610878565b92915050565b6000602082840312156108ba576108b9610727565b5b60006108c88482850161088f565b91505092915050565b600080fd5b600080fd5b7f4e487b7100000000000000000000000000000000000000000000000000000000600052604160045260246000fd5b610913826107da565b810181811067ffffffffffffffff82111715610932576109316108db565b5b80604052505050565b600061094561071d565b9050610951828261090a565b919050565b600067ffffffffffffffff821115610971576109706108db565b5b61097a826107da565b9050602081019050919050565b82818337600083830152505050565b60006109a96109a484610956565b61093b565b9050828152602081018484840111156109c5576109c46108d6565b5b6109d0848285610987565b509392505050565b600082601f8301126109ed576109ec6108d1565b5b81356109fd848260208601610996565b91505092915050565b600060208284031215610a1c57610a1b610727565b5b600082013567ffffffffffffffff811115610a3a57610a3961072c565b5b610a46848285016109d8565b91505092915050565b7f4e487b7100000000000000000000000000000000000000000000000000000000600052602260045260246000fd5b60006002820490506001821680610a9657607f821691505b602082108103610aa957610aa8610a4f565b5b50919050565b600081905092915050565b7f50616369656e74653a2000000000000000000000000000000000000000000000600082015250565b6000610af0600a83610aaf565b9150610afb82610aba565b600a82019050919050565b6000610b1182610794565b610b1b8185610aaf565b9350610b2b8185602086016107b0565b80840191505092915050565b7f204174656e6469646f20656c206469613a200000000000000000000000000000600082015250565b6000610b6d601283610aaf565b9150610b7882610b37565b601282019050919050565b7f20456e20656c20686f73706974616c3a20000000000000000000000000000000600082015250565b6000610bb9601183610aaf565b9150610bc482610b83565b601182019050919050565b7f20436f6e20756e20646961676e6f737469636f2064653a200000000000000000600082015250565b6000610c05601883610aaf565b9150610c1082610bcf565b601882019050919050565b6000610c2682610ae3565b9150610c328287610b06565b9150610c3d82610b60565b9150610c498286610b06565b9150610c5482610bac565b9150610c608285610b06565b9150610c6b82610bf8565b9150610c778284610b06565b915081905095945050505050565b60008190508160005260206000209050919050565b60006020601f8301049050919050565b600082821b905092915050565b600060088302610ce77fffffffffffffffffffffffffffffffffffffffffffffffffffffffffffffffff82610caa565b610cf18683610caa565b95508019841693508086168417925050509392505050565b6000819050919050565b6000610d2e610d29610d2484610731565b610d09565b610731565b9050919050565b6000819050919050565b610d4883610d13565b610d5c610d5482610d35565b848454610cb7565b825550505050565b600090565b610d71610d64565b610d7c818484610d3f565b505050565b5b81811015610da057610d95600082610d69565b600181019050610d82565b5050565b601f821115610de557610db681610c85565b610dbf84610c9a565b81016020851015610dce578190505b610de2610dda85610c9a565b830182610d81565b50505b505050565b600082821c905092915050565b6000610e0860001984600802610dea565b1980831691505092915050565b6000610e218383610df7565b9150826002028217905092915050565b610e3a82610794565b67ffffffffffffffff811115610e5357610e526108db565b5b610e5d8254610a7e565b610e68828285610da4565b600060209050601f831160018114610e9b5760008415610e89578287015190505b610e938582610e15565b865550610efb565b601f198416610ea986610c85565b60005b82811015610ed157848901518255600182019150602085019450602081019050610eac565b86831015610eee5784890151610eea601f891682610df7565b8355505b6001600288020188555050505b50505050505056fea2646970667358221220aaedab634dc6d0637862dccc6066b7ac5e8c89a26bdd64461049c2a474afea4f64736f6c63430008180033",
  "linkReferences": {},
  "deployedLinkReferences": {}
}