{
  "_format": "hh-sol-artifact-1",
  "contractName": "tarea",
  "sourceName": "contracts/tarea.sol",
  "abi": [
    {
      "inputs": [],
      "name": "costo",
      "outputs": [
        {
          "internalType": "uint256",
          "name": "",
          "type": "uint256"
        }
      ],
      "stateMutability": "view",
      "type": "function"
    },
    {
      "inputs": [],
      "name": "diagnostico",
      "outputs": [
        {
          "internalType": "string",
          "name": "",
          "type": "string"
        }
      ],
      "stateMutability": "view",
      "type": "function"
    },
    {
      "inputs": [],
      "name": "direccion",
      "outputs": [
        {
          "internalType": "string",
          "name": "",
          "type": "string"
        }
      ],
      "stateMutability": "view",
      "type": "function"
    },
    {
      "inputs": [],
      "name": "edad",
      "outputs": [
        {
          "internalType": "uint256",
          "name": "",
          "type": "uint256"
        }
      ],
      "stateMutability": "view",
      "type": "function"
    },
    {
      "inputs": [],
      "name": "fecha",
      "outputs": [
        {
          "internalType": "string",
          "name": "",
          "type": "string"
        }
      ],
      "stateMutability": "view",
      "type": "function"
    },
    {
      "inputs": [],
      "name": "getConsulta",
      "outputs": [
        {
          "internalType": "string",
          "name": "",
          "type": "string"
        }
      ],
      "stateMutability": "view",
      "type": "function"
    },
    {
      "inputs": [
        {
          "internalType": "address",
          "name": "",
          "type": "address"
        }
      ],
      "name": "names",
      "outputs": [
        {
          "internalType": "string",
          "name": "",
          "type": "string"
        }
      ],
      "stateMutability": "view",
      "type": "function"
    },
    {
      "inputs": [
        {
          "internalType": "uint256",
          "name": "_costo",
          "type": "uint256"
        }
      ],
      "name": "setCosto",
      "outputs": [],
      "stateMutability": "nonpayable",
      "type": "function"
    },
    {
      "inputs": [
        {
          "internalType": "string",
          "name": "_diagnostico",
          "type": "string"
        }
      ],
      "name": "setDiagnostico",
      "outputs": [],
      "stateMutability": "nonpayable",
      "type": "function"
    },
    {
      "inputs": [
        {
          "internalType": "string",
          "name": "_direccion",
          "type": "string"
        }
      ],
      "name": "setDireccion",
      "outputs": [],
      "stateMutability": "nonpayable",
      "type": "function"
    },
    {
      "inputs": [
        {
          "internalType": "uint256",
          "name": "_edad",
          "type": "uint256"
        }
      ],
      "name": "setEdad",
      "outputs": [],
      "stateMutability": "nonpayable",
      "type": "function"
    },
    {
      "inputs": [
        {
          "internalType": "string",
          "name": "_fecha",
          "type": "string"
        }
      ],
      "name": "setFecha",
      "outputs": [],
      "stateMutability": "nonpayable",
      "type": "function"
    },
    {
      "inputs": [
        {
          "internalType": "string",
          "name": "_name",
          "type": "string"
        }
      ],
      "name": "setName",
      "outputs": [],
      "stateMutability": "nonpayable",
      "type": "function"
    }
  ],
  "bytecode": "0x608060405234801561001057600080fd5b50610f17806100206000396000f3fe608060405234801561001057600080fd5b50600436106100cf5760003560e01c80637e81e0d51161008c578063ac2462f011610066578063ac2462f0146101ec578063c223297a14610208578063c47f002714610226578063fc01618714610242576100cf565b80637e81e0d514610194578063817ff5a6146101b257806384c3de41146101ce576100cf565b806311ce9509146100d457806318131600146100f05780631bb9ac401461010e5780635ab92f9a1461012c5780635cf3d3461461014857806378642da814610178575b600080fd5b6100ee60048036038101906100e99190610698565b610260565b005b6100f861026a565b6040516101059190610755565b60405180910390f35b610116610366565b6040516101239190610786565b60405180910390f35b61014660048036038101906101419190610698565b61036c565b005b610162600480360381019061015d91906107ff565b610376565b60405161016f9190610755565b60405180910390f35b610192600480360381019061018d9190610961565b610416565b005b61019c610429565b6040516101a99190610755565b60405180910390f35b6101cc60048036038101906101c79190610961565b6104b7565b005b6101d66104ca565b6040516101e39190610755565b60405180910390f35b61020660048036038101906102019190610961565b610558565b005b61021061056b565b60405161021d9190610786565b60405180910390f35b610240600480360381019061023b9190610961565b610571565b005b61024a6105c0565b6040516102579190610755565b60405180910390f35b8060048190555050565b606060008060003373ffffffffffffffffffffffffffffffffffffffff1673ffffffffffffffffffffffffffffffffffffffff16815260200190815260200160002080546102b7906109d9565b80601f01602080910402602001604051908101604052809291908181526020018280546102e3906109d9565b80156103305780601f1061030557610100808354040283529160200191610330565b820191906000526020600020905b81548152906001019060200180831161031357829003601f168201915b50505050509050806001600260036040516020016103519493929190610c0e565b60405160208183030381529060405291505090565b60045481565b8060058190555050565b60006020528060005260406000206000915090508054610395906109d9565b80601f01602080910402602001604051908101604052809291908181526020018280546103c1906109d9565b801561040e5780601f106103e35761010080835404028352916020019161040e565b820191906000526020600020905b8154815290600101906020018083116103f157829003601f168201915b505050505081565b80600390816104259190610e0f565b5050565b60018054610436906109d9565b80601f0160208091040260200160405190810160405280929190818152602001828054610462906109d9565b80156104af5780601f10610484576101008083540402835291602001916104af565b820191906000526020600020905b81548152906001019060200180831161049257829003601f168201915b505050505081565b80600190816104c69190610e0f565b5050565b600380546104d7906109d9565b80601f0160208091040260200160405190810160405280929190818152602001828054610503906109d9565b80156105505780601f1061052557610100808354040283529160200191610550565b820191906000526020600020905b81548152906001019060200180831161053357829003601f168201915b505050505081565b80600290816105679190610e0f565b5050565b60055481565b806000803373ffffffffffffffffffffffffffffffffffffffff1673ffffffffffffffffffffffffffffffffffffffff16815260200190815260200160002090816105bc9190610e0f565b5050565b600280546105cd906109d9565b80601f01602080910402602001604051908101604052809291908181526020018280546105f9906109d9565b80156106465780601f1061061b57610100808354040283529160200191610646565b820191906000526020600020905b81548152906001019060200180831161062957829003601f168201915b505050505081565b6000604051905090565b600080fd5b600080fd5b6000819050919050565b61067581610662565b811461068057600080fd5b50565b6000813590506106928161066c565b92915050565b6000602082840312156106ae576106ad610658565b5b60006106bc84828501610683565b91505092915050565b600081519050919050565b600082825260208201905092915050565b60005b838110156106ff5780820151818401526020810190506106e4565b60008484015250505050565b6000601f19601f8301169050919050565b6000610727826106c5565b61073181856106d0565b93506107418185602086016106e1565b61074a8161070b565b840191505092915050565b6000602082019050818103600083015261076f818461071c565b905092915050565b61078081610662565b82525050565b600060208201905061079b6000830184610777565b92915050565b600073ffffffffffffffffffffffffffffffffffffffff82169050919050565b60006107cc826107a1565b9050919050565b6107dc816107c1565b81146107e757600080fd5b50565b6000813590506107f9816107d3565b92915050565b60006020828403121561081557610814610658565b5b6000610823848285016107ea565b91505092915050565b600080fd5b600080fd5b7f4e487b7100000000000000000000000000000000000000000000000000000000600052604160045260246000fd5b61086e8261070b565b810181811067ffffffffffffffff8211171561088d5761088c610836565b5b80604052505050565b60006108a061064e565b90506108ac8282610865565b919050565b600067ffffffffffffffff8211156108cc576108cb610836565b5b6108d58261070b565b9050602081019050919050565b82818337600083830152505050565b60006109046108ff846108b1565b610896565b9050828152602081018484840111156109205761091f610831565b5b61092b8482856108e2565b509392505050565b600082601f8301126109485761094761082c565b5b81356109588482602086016108f1565b91505092915050565b60006020828403121561097757610976610658565b5b600082013567ffffffffffffffff8111156109955761099461065d565b5b6109a184828501610933565b91505092915050565b7f4e487b7100000000000000000000000000000000000000000000000000000000600052602260045260246000fd5b600060028204905060018216806109f157607f821691505b602082108103610a0457610a036109aa565b5b50919050565b600081905092915050565b7f50616369656e74653a2020000000000000000000000000000000000000000000600082015250565b6000610a4b600b83610a0a565b9150610a5682610a15565b600b82019050919050565b6000610a6c826106c5565b610a768185610a0a565b9350610a868185602086016106e1565b80840191505092915050565b7f20204174656e6469646f20656c206469613a2020000000000000000000000000600082015250565b6000610ac8601483610a0a565b9150610ad382610a92565b601482019050919050565b60008190508160005260206000209050919050565b60008154610b00816109d9565b610b0a8186610a0a565b94506001821660008114610b255760018114610b3a57610b6d565b60ff1983168652811515820286019350610b6d565b610b4385610ade565b60005b83811015610b6557815481890152600182019150602081019050610b46565b838801955050505b50505092915050565b7f2020456e20656c20686f73706974616c20200000000000000000000000000000600082015250565b6000610bac601283610a0a565b9150610bb782610b76565b601282019050919050565b7f2020436f6e20756e20646961676e6f737469636f206465202000000000000000600082015250565b6000610bf8601983610a0a565b9150610c0382610bc2565b601982019050919050565b6000610c1982610a3e565b9150610c258287610a61565b9150610c3082610abb565b9150610c3c8286610af3565b9150610c4782610b9f565b9150610c538285610af3565b9150610c5e82610beb565b9150610c6a8284610af3565b915081905095945050505050565b60006020601f8301049050919050565b600082821b905092915050565b600060088302610cc57fffffffffffffffffffffffffffffffffffffffffffffffffffffffffffffffff82610c88565b610ccf8683610c88565b95508019841693508086168417925050509392505050565b6000819050919050565b6000610d0c610d07610d0284610662565b610ce7565b610662565b9050919050565b6000819050919050565b610d2683610cf1565b610d3a610d3282610d13565b848454610c95565b825550505050565b600090565b610d4f610d42565b610d5a818484610d1d565b505050565b5b81811015610d7e57610d73600082610d47565b600181019050610d60565b5050565b601f821115610dc357610d9481610ade565b610d9d84610c78565b81016020851015610dac578190505b610dc0610db885610c78565b830182610d5f565b50505b505050565b600082821c905092915050565b6000610de660001984600802610dc8565b1980831691505092915050565b6000610dff8383610dd5565b9150826002028217905092915050565b610e18826106c5565b67ffffffffffffffff811115610e3157610e30610836565b5b610e3b82546109d9565b610e46828285610d82565b600060209050601f831160018114610e795760008415610e67578287015190505b610e718582610df3565b865550610ed9565b601f198416610e8786610ade565b60005b82811015610eaf57848901518255600182019150602085019450602081019050610e8a565b86831015610ecc5784890151610ec8601f891682610dd5565b8355505b6001600288020188555050505b50505050505056fea2646970667358221220dfb9ca567b6f67d41467095143501a54e72dd0baa2103ad761302ce4a8314b7364736f6c63430008180033",
  "linkReferences": {},
  "deployedLinkReferences": {}
}